{
  "contractName": "voting",
  "abi": [
    {
      "inputs": [],
      "stateMutability": "nonpayable",
      "type": "constructor"
    },
    {
      "anonymous": false,
      "inputs": [
        {
          "indexed": false,
          "internalType": "uint256",
          "name": "_indexId",
          "type": "uint256"
        },
        {
          "indexed": false,
          "internalType": "string",
          "name": "_nume",
          "type": "string"
        },
        {
          "indexed": false,
          "internalType": "string",
          "name": "_prenume",
          "type": "string"
        },
        {
          "indexed": false,
          "internalType": "string",
          "name": "_nationalitate",
          "type": "string"
        }
      ],
      "name": "viewCandidat",
      "type": "event"
    },
    {
      "anonymous": false,
      "inputs": [
        {
          "indexed": true,
          "internalType": "uint256",
          "name": "_candidateId",
          "type": "uint256"
        }
      ],
      "name": "votedEvent",
      "type": "event"
    },
    {
      "inputs": [],
      "name": "AllVoting",
      "outputs": [
        {
          "internalType": "uint256",
          "name": "",
          "type": "uint256"
        }
      ],
      "stateMutability": "view",
      "type": "function",
      "constant": true
    },
    {
      "inputs": [
        {
          "internalType": "uint256",
          "name": "",
          "type": "uint256"
        }
      ],
      "name": "candidateDetails",
      "outputs": [
        {
          "internalType": "string",
          "name": "nume",
          "type": "string"
        },
        {
          "internalType": "string",
          "name": "prenume",
          "type": "string"
        },
        {
          "internalType": "string",
          "name": "nationalitate",
          "type": "string"
        },
        {
          "internalType": "uint256",
          "name": "votingcount",
          "type": "uint256"
        },
        {
          "internalType": "uint256",
          "name": "candidatId",
          "type": "uint256"
        }
      ],
      "stateMutability": "view",
      "type": "function",
      "constant": true
    },
    {
      "inputs": [],
      "name": "countcandidat",
      "outputs": [
        {
          "internalType": "uint256",
          "name": "",
          "type": "uint256"
        }
      ],
      "stateMutability": "view",
      "type": "function",
      "constant": true
    },
    {
      "inputs": [],
      "name": "countpeople",
      "outputs": [
        {
          "internalType": "uint256",
          "name": "",
          "type": "uint256"
        }
      ],
      "stateMutability": "view",
      "type": "function",
      "constant": true
    },
    {
      "inputs": [],
      "name": "owner",
      "outputs": [
        {
          "internalType": "address",
          "name": "",
          "type": "address"
        }
      ],
      "stateMutability": "view",
      "type": "function",
      "constant": true
    },
    {
      "inputs": [
        {
          "internalType": "address",
          "name": "",
          "type": "address"
        }
      ],
      "name": "voters",
      "outputs": [
        {
          "internalType": "bool",
          "name": "",
          "type": "bool"
        }
      ],
      "stateMutability": "view",
      "type": "function",
      "constant": true
    },
    {
      "inputs": [
        {
          "internalType": "string",
          "name": "_nume",
          "type": "string"
        },
        {
          "internalType": "string",
          "name": "_prenume",
          "type": "string"
        },
        {
          "internalType": "string",
          "name": "_nationalitate",
          "type": "string"
        }
      ],
      "name": "addCandidate",
      "outputs": [],
      "stateMutability": "nonpayable",
      "type": "function"
    },
    {
      "inputs": [],
      "name": "AllCandidat",
      "outputs": [
        {
          "internalType": "uint256",
          "name": "",
          "type": "uint256"
        }
      ],
      "stateMutability": "view",
      "type": "function",
      "constant": true
    },
    {
      "inputs": [],
      "name": "AllPeople",
      "outputs": [
        {
          "internalType": "uint256",
          "name": "",
          "type": "uint256"
        }
      ],
      "stateMutability": "view",
      "type": "function",
      "constant": true
    },
    {
      "inputs": [
        {
          "internalType": "uint256",
          "name": "_candidateId",
          "type": "uint256"
        }
      ],
      "name": "vote",
      "outputs": [],
      "stateMutability": "nonpayable",
      "type": "function"
    },
    {
      "inputs": [],
      "name": "PeopleVoting",
      "outputs": [
        {
          "internalType": "uint256",
          "name": "",
          "type": "uint256"
        }
      ],
      "stateMutability": "nonpayable",
      "type": "function"
    }
  ],
  "bytecode": "0x608060405260006001556000600255622191c060035563620bae7160055534801561002957600080fd5b50336000806101000a81548173ffffffffffffffffffffffffffffffffffffffff021916908373ffffffffffffffffffffffffffffffffffffffff160217905550610f9a806100796000396000f3fe608060405234801561001057600080fd5b50600436106100a95760003560e01c80636247e532116100715780636247e5321461014257806382fecb6e146101765780638da5cb5b14610194578063a3ec138d146101b2578063ad71f8dc146101e2578063b533b739146101fe576100a9565b80630121b93f146100ae5780630cb43a6f146100ca5780631049f6cd146100e85780631da773e4146101065780633e64e1c814610124575b600080fd5b6100c860048036038101906100c391906109b0565b61021c565b005b6100d26103c7565b6040516100df9190610ba6565b60405180910390f35b6100f06103d1565b6040516100fd9190610ba6565b60405180910390f35b61010e6103d7565b60405161011b9190610ba6565b60405180910390f35b61012c6103e1565b6040516101399190610ba6565b60405180910390f35b61015c600480360381019061015791906109b0565b6103e7565b60405161016d959493929190610ade565b60405180910390f35b61017e6105b5565b60405161018b9190610ba6565b60405180910390f35b61019c6105da565b6040516101a99190610aa8565b60405180910390f35b6101cc60048036038101906101c791906108f0565b6105fe565b6040516101d99190610ac3565b60405180910390f35b6101fc60048036038101906101f79190610919565b61061e565b005b6102066107b5565b6040516102139190610ba6565b60405180910390f35b600660003373ffffffffffffffffffffffffffffffffffffffff1673ffffffffffffffffffffffffffffffffffffffff16815260200190815260200160002060009054906101000a900460ff16156102a9576040517f08c379a00000000000000000000000000000000000000000000000000000000081526004016102a090610b46565b60405180910390fd5b600181101580156102bc57506001548111155b6102fb576040517f08c379a00000000000000000000000000000000000000000000000000000000081526004016102f290610b86565b60405180910390fd5b6001600660003373ffffffffffffffffffffffffffffffffffffffff1673ffffffffffffffffffffffffffffffffffffffff16815260200190815260200160002060006101000a81548160ff02191690831515021790555060046000828152602001908152602001600020600301600081548092919061037a90610dae565b91905055506002600081548092919061039290610dae565b9190505550807ffff3c900d938d21d0990d786e819f29b8d05c1ef587b462b939609625b684b1660405160405180910390a250565b6000600254905090565b60015481565b6000600154905090565b60025481565b600460205280600052604060002060009150905080600001805461040a90610d4b565b80601f016020809104026020016040519081016040528092919081815260200182805461043690610d4b565b80156104835780601f1061045857610100808354040283529160200191610483565b820191906000526020600020905b81548152906001019060200180831161046657829003601f168201915b50505050509080600101805461049890610d4b565b80601f01602080910402602001604051908101604052809291908181526020018280546104c490610d4b565b80156105115780601f106104e657610100808354040283529160200191610511565b820191906000526020600020905b8154815290600101906020018083116104f457829003601f168201915b50505050509080600201805461052690610d4b565b80601f016020809104026020016040519081016040528092919081815260200182805461055290610d4b565b801561059f5780601f106105745761010080835404028352916020019161059f565b820191906000526020600020905b81548152906001019060200180831161058257829003601f168201915b5050505050908060030154908060040154905085565b6000600254600360008282546105cb9190610c8d565b92505081905550600354905090565b60008054906101000a900473ffffffffffffffffffffffffffffffffffffffff1681565b60066020528060005260406000206000915054906101000a900460ff1681565b3373ffffffffffffffffffffffffffffffffffffffff1660008054906101000a900473ffffffffffffffffffffffffffffffffffffffff1673ffffffffffffffffffffffffffffffffffffffff16146106ac576040517f08c379a00000000000000000000000000000000000000000000000000000000081526004016106a390610b66565b60405180910390fd5b600160008154809291906106bf90610dae565b91905055506040518060a0016040528084815260200183815260200182815260200160008152602001600154815250600460006001548152602001908152602001600020600082015181600001908051906020019061071f9291906107bb565b50602082015181600101908051906020019061073c9291906107bb565b5060408201518160020190805190602001906107599291906107bb565b5060608201518160030155608082015181600401559050507f376036f3e8ad67bc883d4fe91d9d1b4490222652a139872c7ad444f554e6da766001548484846040516107a89493929190610bc1565b60405180910390a1505050565b60035481565b8280546107c790610d4b565b90600052602060002090601f0160209004810192826107e95760008555610830565b82601f1061080257805160ff1916838001178555610830565b82800160010185558215610830579182015b8281111561082f578251825591602001919060010190610814565b5b50905061083d9190610841565b5090565b5b8082111561085a576000816000905550600101610842565b5090565b600061087161086c84610c40565b610c1b565b90508281526020810184848401111561088957600080fd5b610894848285610d09565b509392505050565b6000813590506108ab81610f36565b92915050565b600082601f8301126108c257600080fd5b81356108d284826020860161085e565b91505092915050565b6000813590506108ea81610f4d565b92915050565b60006020828403121561090257600080fd5b60006109108482850161089c565b91505092915050565b60008060006060848603121561092e57600080fd5b600084013567ffffffffffffffff81111561094857600080fd5b610954868287016108b1565b935050602084013567ffffffffffffffff81111561097157600080fd5b61097d868287016108b1565b925050604084013567ffffffffffffffff81111561099a57600080fd5b6109a6868287016108b1565b9150509250925092565b6000602082840312156109c257600080fd5b60006109d0848285016108db565b91505092915050565b6109e281610cc1565b82525050565b6109f181610cd3565b82525050565b6000610a0282610c71565b610a0c8185610c7c565b9350610a1c818560208601610d18565b610a2581610e84565b840191505092915050565b6000610a3d601683610c7c565b9150610a4882610e95565b602082019050919050565b6000610a60602883610c7c565b9150610a6b82610ebe565b604082019050919050565b6000610a83601683610c7c565b9150610a8e82610f0d565b602082019050919050565b610aa281610cff565b82525050565b6000602082019050610abd60008301846109d9565b92915050565b6000602082019050610ad860008301846109e8565b92915050565b600060a0820190508181036000830152610af881886109f7565b90508181036020830152610b0c81876109f7565b90508181036040830152610b2081866109f7565b9050610b2f6060830185610a99565b610b3c6080830184610a99565b9695505050505050565b60006020820190508181036000830152610b5f81610a30565b9050919050565b60006020820190508181036000830152610b7f81610a53565b9050919050565b60006020820190508181036000830152610b9f81610a76565b9050919050565b6000602082019050610bbb6000830184610a99565b92915050565b6000608082019050610bd66000830187610a99565b8181036020830152610be881866109f7565b90508181036040830152610bfc81856109f7565b90508181036060830152610c1081846109f7565b905095945050505050565b6000610c25610c36565b9050610c318282610d7d565b919050565b6000604051905090565b600067ffffffffffffffff821115610c5b57610c5a610e55565b5b610c6482610e84565b9050602081019050919050565b600081519050919050565b600082825260208201905092915050565b6000610c9882610cff565b9150610ca383610cff565b925082821015610cb657610cb5610df7565b5b828203905092915050565b6000610ccc82610cdf565b9050919050565b60008115159050919050565b600073ffffffffffffffffffffffffffffffffffffffff82169050919050565b6000819050919050565b82818337600083830152505050565b60005b83811015610d36578082015181840152602081019050610d1b565b83811115610d45576000848401525b50505050565b60006002820490506001821680610d6357607f821691505b60208210811415610d7757610d76610e26565b5b50919050565b610d8682610e84565b810181811067ffffffffffffffff82111715610da557610da4610e55565b5b80604052505050565b6000610db982610cff565b91507fffffffffffffffffffffffffffffffffffffffffffffffffffffffffffffffff821415610dec57610deb610df7565b5b600182019050919050565b7f4e487b7100000000000000000000000000000000000000000000000000000000600052601160045260246000fd5b7f4e487b7100000000000000000000000000000000000000000000000000000000600052602260045260246000fd5b7f4e487b7100000000000000000000000000000000000000000000000000000000600052604160045260246000fd5b6000601f19601f8301169050919050565b7f44656a6120706572736f616e61206120766f7461742000000000000000000000600082015250565b7f446f61722061646d696e697374726174696120706f617465206164616761206360008201527f616e646964617469000000000000000000000000000000000000000000000000602082015250565b7f4e7520657869737461206173612063616e646964617400000000000000000000600082015250565b610f3f81610cc1565b8114610f4a57600080fd5b50565b610f5681610cff565b8114610f6157600080fd5b5056fea2646970667358221220cd0f5cace346c96cf8061206399aa09c962bc93db1c29c5dcab06ad5cde0eed564736f6c63430008010033",
  "immutableReferences": {},
  "source": "// SPDX-License-Identifier: MIT\r\npragma solidity ^0.8.0;\r\n\r\ncontract voting{\r\naddress public owner;\r\nuint256 public countcandidat = 0;\r\nuint256 public countpeople = 0;\r\nuint256 public AllVoting = 2200000 ;\r\n\r\nconstructor() {\r\n    owner = msg.sender;\r\n}\r\n\r\nmapping(uint256 => candidat) public candidateDetails;\r\n\r\nstruct candidat{\r\n    string nume;\r\n    string prenume;\r\n    string nationalitate;\r\n    uint256 votingcount;\r\n    uint256 candidatId;\r\n}\r\n\r\nmodifier veryaddcandidat() {\r\n    require(owner == msg.sender, \"Doar administratia poate adaga candidati\");\r\n    _;\r\n}\r\n\r\nuint256 openingTime = 1644932721;\r\n\r\nmodifier onlyWhileOpen(){ \r\n        require(block.timestamp >= openingTime);\r\n        _;\r\n    } \r\n\r\nevent viewCandidat(uint256 _indexId, string  _nume, string _prenume, string _nationalitate);\r\n\r\n//add candidat \r\nfunction addCandidate(string memory _nume, string memory _prenume, string memory _nationalitate) public veryaddcandidat  {\r\n    countcandidat++;\r\n    candidateDetails[countcandidat] = candidat(_nume, _prenume, _nationalitate,0,countcandidat);\r\n    emit viewCandidat(countcandidat, _nume, _prenume, _nationalitate);\r\n    \r\n}\r\n\r\nfunction AllCandidat () public view returns (uint256){\r\n    return countcandidat;\r\n}\r\n\r\nmapping(address => bool) public voters;\r\n\r\n\r\nfunction AllPeople() public view returns (uint256){\r\n    return countpeople;\r\n}\r\n\r\nevent votedEvent (uint256 indexed _candidateId);\r\n\r\nfunction vote (uint _candidateId) public {\r\n\r\n    require(!voters[msg.sender], \"Deja persoana a votat \");\r\n\r\n    require(_candidateId >= 1 && _candidateId <= countcandidat, \"Nu exista asa candidat\");\r\n\r\n    voters[msg.sender] = true;\r\n\r\n    candidateDetails[_candidateId].votingcount ++;\r\n    countpeople++;\r\n    emit votedEvent(_candidateId);\r\n}\r\n\r\nfunction PeopleVoting() public returns(uint256) {\r\n    AllVoting-=countpeople;\r\n    return AllVoting;\r\n}\r\n\r\n}",
  "sourcePath": "C:\\Users\\oprea\\OneDrive\\Desktop\\UTM Proj\\voting-beta\\contracts\\Voting.sol",
  "compiler": {
    "name": "solc",
    "version": "0.8.1+commit.df193b15.Emscripten.clang"
  },
  "schemaVersion": "3.4.13",
  "updatedAt": "2023-03-21T06:56:18.757Z",
  "networkType": "ethereum",
  "devdoc": {
    "kind": "dev",
    "methods": {},
    "version": 1
  },
  "userdoc": {
    "kind": "user",
    "methods": {},
    "version": 1
  }
}